:020000040800F2
:1000000070070020DD020008E33700086D370008A4
:10001000E137000833200008193C00080000000008
:100020000000000000000000000000006D38000823
:100030004F20000800000000E5370008B538000830
:10004000F7020008F7020008F7020008F7020008AC
:10005000F7020008F7020008F7020008F70200089C
:10006000F7020008F7020008F7020008F70200088C
:10007000F7020008F7020008F7020008F70200087C
:10008000F7020008F7020008F7020008F70200086C
:10009000F7020008F7020008F7020008F70200085C
:1000A000F7020008F7020008F7020008F70200084C
:1000B000F7020008F7020008F7020008F70200083C
:1000C000F7020008F7020008F7020008F70200082C
:1000D000F7020008F7020008F7020008013C0008D8
:1000E000F7020008F7020008F7020008F70200080C
:1000F000F7020008F7020008F7020008F7020008FC
:10010000F7020008F7020008F7020008F7020008EB
:10011000F7020008F7020008F7020008F7020008DB
:10012000F7020008F7020008F7020008F7020008CB
:10013000F7020008F7020008F7020008F7020008BB
:10014000F7020008F7020008F7020008F7020008AB
:10015000F7020008F7020008F70200080D3C00084B
:10016000F7020008F7020008F7020008F70200088B
:10017000F7020008F7020008F7020008000000007C
:10018000F7020008F702000800F002F800F096F805
:100190000AA090E8000C82448344AAF10107DA45E2
:1001A00001D100F08BF8AFF2090EBAE80F0013F09E
:1001B000010F18BFFB1A43F001031847AC400000C1
:1001C000CC400000103A24BF78C878C1FAD8520752
:1001D00024BF30C830C144BF04680C6070470000C1
:1001E0000023002400250026103A28BF78C1FBD840
:1001F000520728BF30C148BF0B6070476E2900F01E
:10020000EB82702900F02D84662903F09E87652912
:1002100003F09B87672903F09887612903F097878C
:1002200003681B0A28BF41F08001692900F0988209
:10023000642900F09582752900F092826F2900F000
:10024000BA83782900F0F983E92900F05583E4297D
:1002500000F05283F52900F04F83EF2900F0B783B7
:10026000F82900F0F8830368DB0928BF41F080011A
:10027000632901F04B81732901F05081E32901F0DA
:100280005B81F32901F06081002070471FB503F006
:1002900052FF9DE8030000F0CBF901F0AFF9040034
:1002A0000020002103F07EFD401C60600020002142
:1002B00003F062FDE0601FBD10B510BD01F070F9E4
:1002C0001146FFF7E3FF03F0D7FC01F04DFA03B44A
:1002D000FFF7F2FF03BC01F07DFA000009488047F8
:1002E00009480047FEE7FEE7FEE7FEE7FEE7FEE718
:1002F000FEE7FEE7FEE7FEE704480549054A064B30
:10030000704700004D390008890100087001002085
:1003100070070020700300207003002070B50646AF
:1003200000F06AF9056806F10B0020F00704B442FA
:100330009CBF002070BD2B466A68BAB11068A0420D
:1003400010D304F1080188423CBF5068586007D3BD
:100350005168101941601168091B016058601460F0
:10036000101D70BD13465268002AE7D12146284669
:1003700000F04AF90028DED170BD70B50446051FB3
:1003800000F03AF90068002C14BF446870BD002CDE
:1003900018BFAC423CBF20466468F8D301680A1815
:1003A000AA4218BF456003D12A680546114401607E
:1003B00028684119A1421CBF6C6070BD616869600A
:1003C00021680844286070BD53EA020C00F069807F
:1003D0002DE9F04B4FF00006002B1FBFB3FA83F559
:1003E00003FA05F424FA05F65E4012BF1643B2FA8A
:1003F00082F502FA05F4C5F120051EBF22FA05FCBC
:1004000044EA0C04203556EA044C4FEA144418BF61
:10041000641C4FF000084FF00009904271EB030C90
:1004200039D3002919BFB1FA81F701FA07F6B0FAFA
:1004300080F700FA07F6C7F120071EBF20FA07FC75
:1004400046EA0C062037B6FBF4FCA7EB0507103F85
:1004500007F01F0BCBF120060CFA0BFB2CFA06F66B
:1004600044BFB3460026202FA4BF5E464FF0000BCA
:100470005BEA060C08BF4FF0010B19EB0B09ABFB55
:10048000027C48EB0608C01B06FB02CC0BFB03CC2E
:1004900071EB0C01C1E70B46024641464846BDE8F8
:1004A000F08B13B54FF000004FF00001AFF3008068
:1004B000BDE81C40704700001CB50C46064B7B4451
:1004C00069460090204600F0A0F9044600206946E5
:1004D00000F0AEF920461CBD6F03000010B5431CB0
:1004E00002E010F8011B71B18107FAD14FF001321F
:1004F00002C88C1A8C4314EAC211F9D0C01A0A0639
:1005000003D0C01E10BDC01A10BD0A0401D0801E49
:1005100010BD0902FCD0401E10BD032A40F23080FD
:1005200010F0030C00F0158011F8013BBCF1020F34
:10053000624498BF11F801CB00F8013B38BF11F8B5
:10054000013BA2F1040298BF00F801CB38BF00F8CC
:10055000013B11F0030300F05383083AC0F0088018
:1005600051F8043B083A51F804CBA0E80810F5E72D
:10057000121D5CBF51F8043B40F8043BAFF3008010
:10058000D20724BF11F8013B11F801CB48BF11F885
:10059000012B24BF00F8013B00F801CB48BF00F855
:1005A000012B70474FF0000200B513469446964663
:1005B000203922BFA0E80C50A0E80C50B1F1200176
:1005C000BFF4F7AF090728BFA0E80C5048BF0CC024
:1005D0005DF804EB890028BF40F8042B08BF704782
:1005E00048BF20F8022B11F0804F18BF00F8012BF4
:1005F00070477047704770470048704714010020EB
:10060000704770477047704738B504460A46002067
:100610006946AFF30080002808BF38BD0246009944
:10062000204600F023FB012038BD012000F0B0BFC0
:10063000F8B5AFF30080054600200C46102000BF3F
:100640000646A819A0420DD9324669460020AFF3EC
:100650000080070008BF00F09BFF0098A04218BF71
:100660000546C419FFF7C8FF05600746F01D20F0D6
:1006700007004619284600F00AF8B44208BFF8BD42
:10068000A21B31463868BDE8F84000F0EFBA0021FF
:100690000160C0E9011070471020704770B5044632
:1006A00085690068C10601D5302600E02026C00714
:1006B00007D070BDD4E9012130469047206A401C24
:1006C00020626D1EF6D570BD70B504468569007850
:1006D000C00707D170BDD4E9012120209047206ACE
:1006E000401C20626D1EF6D570BD09684A0501D513
:1006F00040B27047C905FCD500B2704709684A0589
:1007000001D5C0B27047C905FCD580B2704770B53D
:100710000C460546012A05D02878800600D5EA69EE
:10072000002302E0012305E05B1C934202D2E05C5F
:100730000028F9D1A869E618C01AA861286A1844E7
:1007400028622846FFF7AAFF04E0D5E9012114F842
:10075000010B9047B442F8D32846FFF7B5FF70BDB0
:100760002DE9F0410646002410687529314616A58A
:1007700010D0FFF7BAFF002802DA404213A507E0C5
:1007800031688A0701D512A502E0490704D511A5F1
:10079000012401E0FFF7B2FF00210A2206F124073D
:1007A00009E0B0FBF2FCB0FBF2F302FB1C003030BE
:1007B00078541846491C0028F3D123462A4630466F
:1007C000BDE8F04100F0B1BA000000002D000000CB
:1007D0002B0000002000000011680268006A530529
:1007E00001D508700AE0D30501D5088006E013069C
:1007F00003D5C217C1E9000200E00860012070477C
:1008000001694A1C02610878704700B58FB0CDE9D4
:1008100001310021059105497944CDE903101146C4
:10082000684600F029F90FB000BD0000E5FFFFFFAA
:100830000A6802F8010B0A60704700002DE9FF5FAB
:1008400015468A460446DFF8AC80F8440027D8E90C
:1008500000103E46CDE9001010E03AF816106A4646
:1008600002A800F075FE411C07D02178890603D547
:10087000E269391891420DD80744761C2078800629
:1008800002D5E069B84205DDAE42E6DB3AF8160073
:100890000028E2D1A069C01BA0612046FFF7FEFE40
:1008A000D8E90010CDE90010002017E03AF8181040
:1008B0006A4602A800F04CFEB0F1FF3F81460BD023
:1008C00000250DF1080B05E0D4E901211BF8050016
:1008D00090476D1C4D45F7D308F10100B0428046AA
:1008E000E4DB206A384420622046FFF7EDFEBDE8D5
:1008F000FF9F00001E3900002DE9F0418046D21D07
:1009000022F007020025D2E90002F52915A614D02D
:10091000011E72F1000106DA0023D0EB030063EB45
:10092000020211A608E0D8F800108B0701D50FA627
:1009300002E0490701D50EA601251146002408F161
:10094000240704E000F0ACF930323A55641C50EA58
:100950000102F7D12B46324621464046BDE8F04120
:1009600000F0E3B9000000002D0000002B000000A3
:100970002000000030B4002100F1240408E002F05F
:100980000705D208303542EA4372DB086554491C3A
:1009900052EA0305F3D10468002310A2250707D506
:1009A000A40600D421B1C46901230DA2641EC46150
:1009B00030BC00F0BAB910B5044621461068FFF704
:1009C0009DFE02462046BDE810400023D2E7D21D1E
:1009D00022F00701D1E90023CCE70000000000006D
:1009E00030000000F0B40D460188090502D5214C05
:1009F0007C4402E01F4C7C440E34002100F12406AC
:100A000008E002F00F071209E75D42EA03721B09D2
:100A10007754491C52EA0307F3D1027800231207E6
:100A200004D5702D06D009B1022311342246F0BC42
:100A300000F07BB901231034F8E770B504460D4689
:100A400021461068FFF75AFE024629462046BDE8B7
:100A500070400023C6E7D21D22F00703D3E900232C
:100A6000C0E70368126843F0200303600823C361F2
:100A70000023B7E7803700002DE9F05F8946044680
:100A80004FF0000ADFF874B1FB44C0F820A0204604
:100A9000E1688847002874D0252806D0D4E90121D0
:100AA0009047206A401C2062F1E700265F462046FE
:100AB000E16888472028054607DB312D05D27819E3
:100AC00010F8200C08B10643F1E7B00701D526F075
:100AD0000406C4F81CA00027C4F818A02A2D09D0C9
:100AE000284603F0C2F838B304EB8708303DC8F855
:100AF000185019E059F8041B204604EB8702916155
:100B0000E1688847012F054618D1E069002820DAFE
:100B100026F020061DE0D8F8180000EB800005EB59
:100B200040003038C8F818002046E168884705467C
:100B300003F09BF80028EED1012F0AD02E2D08D10A
:100B40002046E16888477F1C0546022F46F02006B4
:100B5000C4DBA069002803DA404246F00106A06128
:100B6000F00701D026F010066C2D0BD0682D09D0AF
:100B70004C2D39D06A2D35D0742D35D07A2D33D007
:100B800016E038E0E1682F4620468847B84205461F
:100B900009D16C2F26D04FF48060E16806432046CF
:100BA0008847054604E06C2F1AD04FF48070064346
:100BB0000DB3A5F14100192802D8203546F400668E
:100BC0004A462946204626604E46FFF717FB80B16D
:100BD00001280BD0F61D26F0070000F1080956E7A2
:100BE0004020E4E78020D8E70020D6E706F104099A
:100BF0004DE7284652E7206ABDE8F09F1037000015
:100C000010B5203AC0F00B80B1E81850203AA0E8A7
:100C10001850B1E81850A0E81850BFF4F5AF5FEADB
:100C2000027C24BFB1E81850A0E8185044BF18C98E
:100C300018C0BDE810405FEA827C24BF51F8043B35
:100C400040F8043B08BF7047D20728BF31F8023B89
:100C500048BF11F8012B28BF20F8023B48BF00F81D
:100C6000012B7047004870470C0100200346406884
:100C70008C46002818BF88423CBF03464068F8D322
:100C800018681844884207D00CF1030020F00700D0
:100C9000001D411A521A0146081D0A60FFF76DBB7C
:100CA00030B5B0F10A024FEA900E71F100034EEA3E
:100CB000817EB0EB0E0061EB91014FEA101E4EEA0F
:100CC000017E10EB0E0041EB11114FEA102E4EEA9F
:100CD000016E10EB0E0041EB11214FEA104E4EEA6F
:100CE000014E10EB0E0041EB1141401841F10001A3
:100CF0004FEAD00040EA41704FEAD10110EB800585
:100D00004FEA810444EA907444EB01046D1944EB0A
:100D10000404521BA3414FF0000348BF0A3200D520
:100D200030BD401C41F1000130BD2DE9F0470D46BA
:100D300099469246044600F124080168880604D5C5
:100D4000E06921F01001216000E00120A84201DDEE
:100D5000471B00E00027A1697A1902EB0900081A75
:100D6000A0612078C00602D42046FFF797FC002639
:100D700008E0D4E901211AF806009047206A401CD7
:100D8000761C20624E45F4DB2078C0060AD520464A
:100D9000FFF784FC06E0D4E9012130209047206A67
:100DA000401C2062381EA7F10107F4DC07E0D4E9FB
:100DB000012118F805009047206A401C2062281E77
:100DC000A5F10105F3DC2046FFF77EFC2078000644
:100DD00002D50220BDE8F0870120FBE770472DE92E
:100DE000FF4F0C461E464FF0FF378BB0D2E9000193
:100DF000DDF860800A908A46C1F30A5505B93D4680
:100E0000002108464FF00000BAF1000F00F4400046
:100E100005DA00EB80004FF4400101EA50004FEA90
:100E20009059B9F1010F00DDB9460A9850EA4A001D
:100E30000ED044F61050A5F2FF3545432F14B8F1FB
:100E4000000F1ED07542291E1EDDC9F100021CE0F4
:100E5000B8F1010F4FF0000001D0302103E0F24360
:100E600005E02154401CB042FBDB3046002200214B
:100E700021540B99C1F80880C1E900200FB0BDE8EA
:100E8000F08FBD1B6D1CDEE74A4600DA694206A8FA
:100E900000F0F8FB06AB93E8070003AB83E807001C
:100EA00050460A9900F0FDFC8DE80700A0F50050BF
:100EB0001F3800900398002D0ADD42F21F014A46B8
:100EC0000844002303A90390684600F066FF09E088
:100ED000A0F500504A461F38002303A90390684636
:100EE00000F070FF8DE807000004000C03D04FF005
:100EF000FF30410800E01046B8F1000F03D0002297
:100F0000009215461EE0751E05D4FFF7C9FE30326B
:100F100062556D1EF9D5B3460122084302D0002266
:100F20007F1C04E02078302801D100227F1E002A97
:100F3000099784D01DE0112D07DAFFF7B1FE30329A
:100F400062556D1C50EA0102F5D1084302D00098A9
:100F5000C8B10EE00021681E05E0235C625C6354AA
:100F60002254401E491C8142F7DBAB46A81B401EA1
:100F70000990002004F80B000B98099AC0F808802B
:100F8000C0E9002B7AE711264FF0000857E72DE95A
:100F9000F04F88460446D21D22F0070191B0D1E9F6
:100FA0000001CDE90A0102F038FE02460B98C00F9D
:100FB00001D02D2007E02068810701D52B2002E019
:100FC000202101EAC000032A099001D0072A05DB8D
:100FD00003464146204600F015FB0BE120788006D1
:100FE00001D5E06900E00620B8F1650F814606D022
:100FF000B8F1660F18D0B8F1670F70D131E000205A
:10100000B9F1110F009001DB112301E009F1010397
:101010000AAA01A90CA8FFF7E2FEDDE90C70002680
:1010200009F10105834647E001204B4600904FF04F
:1010300000470AAA01A90CA8FFF7D1FEDDE90DB00F
:101040000C995D46002610B909F101000D18B9EBA5
:10105000050003D4C0F1FF3609F10105A5EB090035
:101060002BE0B9F1010F01DA4FF001090020B9F1CD
:10107000110F0090484601DD112300E003460AAA43
:1010800001A90CA8FFF7ABFEDDE90C704D46002668
:101090008346207800070AD4AB4500DA5D4601A8F4
:1010A000012D04DD411911F8011C302907D04F45ED
:1010B00002DA17F1040F04DA012082460FE06D1EF8
:1010C000EEE7002F02DCED1B3E4403E0781CA84253
:1010D00000DD7D1CB81B00F1010A4FF000472078AD
:1010E000000703D4AA4501DB4FF0FF3A0021B7F116
:1010F000004F0DF143088DF8431024D002202B231C
:10110000002F01DA7F422D230A21021EA0F10100E7
:1011100000DC5FB197FBF1FC97FBF1F201FB1C7C5B
:1011200017460CF1300C08F801CDEEE7A8F10100EC
:1011300003702188090501D5452100E06521A0F152
:10114000010800F8011C09980FA9A1EB0807FF1D71
:1011500000B10120411901EBEA70A1693844081A75
:10116000401EA0612078C00602D42046FFF796FA00
:10117000099828B1D4E901219047206A401C2062D7
:101180002078C00622D52046FFF788FA1EE0002E00
:1011900004DBB34502DD01A8805D00E03020D4E926
:1011A00001219047206A401C2062761CAAF10100B0
:1011B0005FEA000A0AD100F021FAC0680168405CC9
:1011C000D4E901219047206A401C2062281EA5F125
:1011D0000105DCDC07E0D4E9012118F8010B904798
:1011E000206A401C2062381EA7F10107F3DC20466C
:1011F000FFF76AFA032011B041E600002DE9F04F35
:1012000004460D46D21D22F0070089B0D0E90097B0
:101210004846394602F001FD0246F80F01D02D2361
:1012200007E02068810701D52B2302E0202101EA95
:10123000C0038DF820300BB1012000E00020032A0C
:10124000824601D0072A04DB2946204600F0DAF95D
:101250003FE12078800601D40D2500E0E569C7F361
:101260000A560D2D49DA00214FEA175B08464FF068
:101270000000002F00F4400007DA00EB80004FF47C
:10128000400100EBD07001EA60008115012901DD09
:101290004FF0FF3100224FEA850CBCF1180F06D346
:1012A0001346ACF118004FF08052C24003E04FF4F7
:1012B000801323FA0CF30CF10C0CBCF1200F04D3B7
:1012C000ACF1200C09FA0CF001E007FA0CF000294F
:1012D0004FF0004801DD18B90FE00ED140450CD3A6
:1012E00019EB02095F4121B9404502D19F4329EA28
:1012F0000209BBEB175F00D0761C2088000502D5E1
:101300007B48784402E07A487844193808AA3023A8
:1013100002F80A30037C0AF10101002E0AF1020AE8
:1013200053546A4602DC4FF0300101E04FF03101C6
:101330004FF001088DF8001002D0A6F2FF3603E04E
:1013400059EA470100D06B4E002D02DC21780907D5
:1013500004D54FF002082E218DF80110C44600215B
:101360000BE0C7F303433F01C35C491C6D1E02F849
:101370000830052908F1010801DA002DF1DC00210F
:101380000CE000EB1973491C1B786D1E082902F84C
:1013900008304FEA091908F1010801DA002DF0DCE4
:1013A00021688B0602D516E0A8F10108E04505DDAD
:1013B00002EB080313F8013C302BF5D0B8F1000F15
:1013C00009DD02EB080313F8013C2E2B03D10907BA
:1013D00001D4A8F10108002D05DD3E2102F8081016
:1013E0006D1E08F10108407C002E02F8080008F18B
:1013F000010804DA2D20764202F8080002E02B20D2
:1014000002F808000A214FF47A70864208F10108B8
:101410000BDB96FBF0F3303302F8083096FBF0F369
:1014200008F1010800FB136601E0642E0CDB642068
:1014300096FBF0F3303302F8083096FBF0F308F136
:10144000010800FB136601E00A2E06DB96FBF1F0B3
:10145000303002F8080008F1010896FBF1F001FBBA
:101460001060303002F80800A16908F1010808EBAB
:10147000050202EB0A00081AA0612078C00602D417
:101480002046FFF70BF9216A08AE01EB0A00206243
:1014900004E0D4E9012116F8010B9047BAF1010AE2
:1014A000F7D22078C00602D52046FFF7F7F86E463F
:1014B00009E016F8010B3E280FD0D4E9012190472E
:1014C000206A401C2062B8F10108F2D22046FFF7E2
:1014D000FBF809B00320BDE8F08F206A28442062A1
:1014E00003E0D4E90121302090476D1EEBD3F8E7EB
:1014F000BA2E000002FCFFFF10B5436913B1AFF331
:10150000008001E0FFF703F9012010BD127800F11F
:1015100024010A7000224A700122EDE711684FF0A1
:10152000FF32E9E710B5436913B1AFF3008001E082
:10153000FFF784F9012010BD128800F12401828494
:101540000022C2840122EDE711684FF0FF32E9E783
:1015500070B516460C46054600F048F8036893F847
:101560000101012806D0FF2C0FD8185D68B10120B9
:101570002C7070BDD3F807013246214603F20713E1
:1015800003442846BDE8704018474FF0FF3070BD57
:1015900010B500F0F7F8BDE8104000F0EEB8704765
:1015A0007546FFF75FFBAE4605006946534620F0DF
:1015B0000700854618B020B5FEF79EFEBDE8204026
:1015C0004FF000064FF000074FF000084FF0000BFF
:1015D00021F00701AC46ACE8C009ACE8C009ACE8B2
:1015E000C009ACE8C0098D467047000010B500F096
:1015F00005F8001D10BD00BFAD2700000048704772
:101600002C0100202DE9F0411F4604460326016805
:10161000072A01F4006004DB08B116A505E016A551
:1016200003E008B115A500E015A521F01000206029
:10163000A069C01EA0610FB1401EA0612046FFF747
:101640002DF84FB1D4E9012138469047206A401C5B
:101650002062C01C206206E0206AFAE7D4E901217A
:1016600015F8010B9047761EF8D22046FFF72CF8AC
:10167000BDE8F0814E414E006E616E00494E46005D
:10168000696E66002DE9F047814616468AB03548F6
:1016900078440DC88DE80D0032487844801C03ACB6
:1016A0000DC884E80D0041F69B300844372190FBBB
:1016B000F1F290FBF1F5A5F1800501FB12041B3C52
:1016C00002D56442012000E00020DFF898A08046A7
:1016D0000027FA44AAF1BE0A0EE0E0070AD032461B
:1016E000684607EB470101230AEB810100F06AFB22
:1016F0008DE8070064107F1C002CEED1194F7F4449
:10170000AE3F19E0E80715D007EB04100DF1180AF9
:1017100090E80E008AE80E00C068F04201D19819E6
:1017200008903246012306A903A800F04BFB03AB47
:1017300083E807006D10641C002DE3D14FF0010316
:1017400032466946B8F1000F03A802D000F025FB2D
:1017500001E000F037FBC9E90001C9F808200AB030
:10176000BDE8F087BC2B000010B50446AFF3008045
:101770002046BDE81040FEF7AABD002801D000F0C9
:1017800029B8704710B5012805D0002103A000F04A
:1017900027F8012010BD09A1F8E70000534947527E
:1017A000544D454D3A204F7574206F662068656131
:1017B00070206D656D6F7279000000003A204865F9
:1017C0006170206D656D6F727920636F72727570D4
:1017D0007465640001491820ABBEFEE726000200D4
:1017E00070B505460C460A2000E06D1C00F052F86A
:1017F00035B128780028F8D102E0641C00F04AF8DE
:1018000014B120780028F8D1BDE870400A2000F01B
:1018100041B800004FF0013C50F8042B51F8043B54
:101820009A4221D1A2EB0C03934313EACC1317D1B4
:1018300050F8042B51F8043B9A4215D1A2EB0C034B
:10184000934313EACC130BD150F8042B51F8043B0B
:101850009A4209D1A2EB0C03934313EACC13DBD0D9
:101860004FF00000704700BFD01A01BAB1FA81F101
:1018700001F0180122FA01F0CB40C1F12001DBB2E6
:10188000C0B2C01A2CFA01F3D11A914311EAC31164
:10189000E6D1704708B569468DF800000320ABBE5D
:1018A00008BD5FEA400C08BF91F0000F4FEA8C239F
:1018B0004FEAC12243EA51514FEA1C5018BF00F5CC
:1018C000F0404FEA300018BF41F000415FEA6C5C25
:1018D00000F02980BCF1FF3F08BF40F08040704716
:1018E000130C06BF12044FF0100C4FF0000C130E37
:1018F00004BF12020CF1080C130F04BF12010CF10B
:10190000040C930F04BF92000CF1020CD30F04BF20
:1019100052000CF1010C11464FF00002A0F11F0023
:10192000A0EB0C00704711F0004F08BF704731F07A
:1019300000413FF4D5AF0B0C06BF09044FF0100C6B
:101940004FF0000C0B0E04BF09020CF1080C0B0F3A
:1019500004BF09010CF1040C8B0F04BF89000CF1CA
:10196000020CCB0F04BF49000CF1010CCCF1200399
:10197000A0EB0C0022FA03F302FA0CF241EA030195
:1019800000F10100704720F07F4C80EA030023F053
:101990007F47ACEB070303F57C5300F0004003F1F5
:1019A000FF032DE980494FEA154B09B44FEA144370
:1019B00025EA0B4E24EA03480FF2042606EB132710
:1019C00049083E785FEA320203FB0667C7F5000765
:1019D00007FB06F64FEA54374FEAD64606F10206F1
:1019E00007FB066CCCF1005C4FEA1C472CEA074C65
:1019F00007FB06F40CFB06F504EB15464FEA9616BA
:101A000034BF00204FF000404FEAD13706FB07FCFF
:101A10004FEA1C4C0CFB0BF7D21B03FB0CF761EBE2
:101A200007010CFB0EF7B0EB074072EB17420CFB03
:101A300008F734BFA2EB0742B2EB074261EB174154
:101A40004FEA0C444FEA910706FB07FC4FEA1C4C97
:101A50000CFB0BF7B0EBC74072EB573203FB0CF7F4
:101A600034BFA2EBC742B2EBC74261EB57310CFB6C
:101A70000EF7B0EBC70072EB57720CFB08F734BFE0
:101A8000A2EBC702B2EBC70261EB5771039F4FEAAB
:101A9000816141EA921104EBCC044FEAD1374FEA5D
:101AA000826206FB07FC42EA90124FEA80604FEA2E
:101AB0001C4C0CFB0BF7D21B03FB0CF761EB070173
:101AC0000CFB0EF7B0EB074072EB17420CFB08F76C
:101AD00034BFA2EB0742B2EB074261EB17414FEA7A
:101AE0008C554FEA910704EB9C2406FB07FC4FEA58
:101AF0001C4C0CFB0BF7B0EBC74072EB573203FBEF
:101B00000CF734BFA2EBC742B2EBC74261EB5731CF
:101B10000CFB0EF7B0EBC70072EB57720CFB08F72B
:101B200034BFA2EBC702B2EBC70261EB577115EBF2
:101B30004C254FEA816141EA92114FEA82624FEAF5
:101B4000D13742EA901206FB07FC44F100044FEA49
:101B500080604FEA1C4C0CFB0BF7D21B03FB0CF70D
:101B600061EB07010CFB0EF7B0EB074072EB17427D
:101B70000CFB08F734BFA2EB0742B2EB074261EB64
:101B8000174115EB1C154FEA813141EA92414FEAAA
:101B9000823242EA90424FEA80304FEA0C7644F1BA
:101BA000000448EA03434EEA0B484FF0000EB2EB44
:101BB000080C71EB030724BF624639464EEB0E0E4C
:101BC0004FF0000B0018524149414BEB0B0BB2EBAD
:101BD000080C71EB03077BF1000B24BF624639460A
:101BE0004EEB0E0E4FF0000B0018524149414BEBEB
:101BF0000B0BB2EB080C71EB03077BF1000B24BF5E
:101C0000624639464EEB0E0E51EA020718BF46F007
:101C1000010616EB0E7655F1000254F1000103D5D2
:101C2000BDE88901BDE80088BDE88901BDE800483C
:101C3000B619524141EB0101A3F1010370478080C5
:101C40007F7E7D7C7B7A7978777676757473727116
:101C500071706F6E6E6D6C6C6B6A6A6968686766CE
:101C600066656464636362616160605F5F5E5E5D60
:101C70005D5C5C5B5B5A5A595958585757565655D4
:101C800055555454535352525251515050504F4F36
:101C90004F4E4E4D4D4D4C4C4C4B4B4B4A4A4A4986
:101CA00049494848484747474746464645454544C9
:101CB0004444444343434342424242414141002B56
:101CC0009C4630D477002BD01CB54FEA370703B4BD
:101CD0004FF010004FF01001BAF1000F06D0BCF128
:101CE000000FDCBF40F0080040F008014FF000009A
:101CF0000FBCBDE810400BF1010BBBF1010F08BF99
:101D00005FEA170722BF12F1010211F101014FF042
:101D1000004143F1000300F0004043EA0000704737
:101D2000F9D35708D0E746EA064613F1400F4FEAC9
:101D300016461FDD13F1200FDFBF16430A460021B0
:101D400020335B42BED0C3F1200746EA064602FAC2
:101D500007F74FEA164646EA0706C3F1200722FABC
:101D600003F201FA07F721FA03F14FF0000342EA08
:101D70000702A7E746EA020646EA06464FEA164683
:101D800046EA0106BCBF46EA0646360C4FF00003A1
:101D90004FF000024FF0000194E72DE9804C9A4685
:101DA000934670B491E8380007C831EA400C48BF48
:101DB00034EA430C03D5FFF7E6FDFFF780FFF0BCE4
:101DC000BDE8008C2DE9804C9A46934670B491E8AA
:101DD000380007C810F0804F08BF13F0804F03D1C0
:101DE00000F005F8FFF76BFFF0BCBDE8008C20F0B9
:101DF0007F4780EA030023F07F4C07EB0C03A3F539
:101E00007C5300F00040A3F1FE0392F0000F00F0BD
:101E1000B38095F0000F00F077802DE901494FEA7B
:101E200011404FEA144621EA004800FB06FC24EA70
:101E3000064708FB06F607FB08F800FB07F718EB58
:101E400006484CEB164C4FEA124B18EB07484FEA8A
:101E500015464CEB174022EA0B4E0BFB06FC25EA1D
:101E600006470EFB06F607FB0EFE0BFB07F71EEB05
:101E7000064E4CEB164C4FF000061EEB074E4CEB9B
:101E8000174B18EB0B0840F1000018EB0E0B58EB4A
:101E9000000840F100008F1A4FF000013CBFC94319
:101EA000661B14BFB5EB040C00213CBFC943F61BF5
:101EB0004FEA17444EEA8E0E27EA04454FEA1C47C4
:101EC00004FB07622CEA074C05FB07F70CFB05F641
:101ED00004FB0CFC16EB074642EB174216EB0C46D4
:101EE00042EB1C421BEB060658EB0202414146EA5C
:101EF0009E0601D5BDE80189B619524141EB0101A9
:101F0000A3F10103BDE801894FEA14454FEA1147E7
:101F100024EA054621EA074C05FB07F406FB07F710
:101F20000CFB06F105FB0CFC11EB074144EB1744DD
:101F30004FEA124711EB0C4144EB1C4422EA074CD8
:101F400005FB07F206FB07F70CFB06F605FB0CFC8E
:101F500016EB074642EB174216EB0C4642EB1C45CC
:101F60006A1854F1000148BF7047B619524141EB5D
:101F70000101A3F10103704795F0000F37D04FEA3C
:101F800011424FEA144721EA024624EA074C02FBB9
:101F900007F106FB07F70CFB06F402FB0CFC14EB45
:101FA000074441EB17414FEA154714EB0C4441EB52
:101FB0001C4125EA074C02FB07F506FB07F70CFB63
:101FC00006F602FB0CFC16EB074645EB174516EB35
:101FD0000C4645EB1C42121951F1000148BF7047F5
:101FE000B619524141EB0101A3F1010370474FEAD9
:101FF00014454FEA114724EA054621EA074C05FB40
:1020000007F106FB07F70CFB06F24FF0000605FB95
:102010000CFC12EB074241EB174112EB0C4251EB67
:102020001C4148BF7047921841EB0101A3F1010325
:102030007047FEE710B500231A4603E0845C521C8B
:102040002344DBB28A42F9DBD843C0B210BD7047EB
:10205000F0B505462DED0A8B83B01F4614460E469B
:102060001078FF287DD16078FF28FBD1A0786978AF
:102070008842F7D1F81E41B2A01CFFF7DBFFE1193F
:1020800011F8011C8842EDD12079A870284600F093
:10209000E1FA242E03D1E0780A2800D1AA269FED88
:1020A000A2BB9FEDA3CB242E75D02DDC102E74D0B7
:1020B0001DDC002E67D0012E62D0062E13D134F81D
:1020C000051F25F8221F66886E8063792B71A07921
:1020D0006871E279AA7124892C818DE81500324655
:1020E00095A001F02DFE03B0BDEC0A8BF0BD112EC2
:1020F0005ED0142E66D01A2EF5D1E0792877A0791B
:1021000068776079A877EEE79FED908B9FED919BC4
:102110009FED92AB2B2E7CD00DDC262E7DD0282E71
:1021200079D02A2EDFD1607900EE100AB8EE400A8D
:1021300085ED050AD7E7322E6ED0AA2ED3D1B4F89A
:102140000500A86000EE100AB8EEC00A10EE100AF2
:1021500001F080FF53EC1B2B01F07EFE53EC1C2B97
:1021600000E0D8E001F078FE01F032FE6860B4F8DB
:1021700007004105C0F3090073D401F05AFE93E053
:10218000697878A00DE0607941B2E977E27985F865
:10219000202079A00FE025E0FFE7617985F82C1079
:1021A0007EA003B0BDEC0A8BBDE8F04001F0C8BDD5
:1021B000A27961797CA003B0BDEC0A8BBDE8F04048
:1021C00001F0BEBDB4F8050001F033FE53EC1B2B4B
:1021D00001F042FE53EC1C2B01F03EFE01F0F8FD35
:1021E000286380E7B4F80500A86000EE100AB8EE96
:1021F000C00A10EE100A01F02DFF53EC1B2B01F06A
:102200002BFE53EC1C2B01F027FE01F0E1FD686072
:1022100069E73DE001E01BE079E0B4F80500410525
:10222000C0F3090002D401F004FE09E000EE100A38
:10223000B8EE400AB1EE400A10EE100A01F00AFFB3
:1022400053EC182B01F008FE01F0C2FDE8604AE7EC
:10225000B4F805004105C0F3090003D401F0E9FD1D
:102260000AE017E000EE100AB8EE400AB1EE400AAC
:1022700010EE100A01F0EEFE53EC192B01F0ECFD0C
:1022800053EC1A2B01F0E8FD01F0A2FD28612AE7CA
:1022900060793AE000EE100AB8EE400AB1EE400A6A
:1022A00010EE100A01F0D6FE53EC182B01F0D4FD0D
:1022B00001F08EFDE860B4F809004105C0F30900A3
:1022C00002D401F0B6FD09E000EE100AB8EE400AB3
:1022D000B1EE400A10EE100A01F0BCFE53EC192BCF
:1022E00001F0BAFD53EC1A2B01F0B6FD01F070FDC0
:1022F0002861E07AF2EE040A00EE100AB8EE400A15
:1023000080EE201A85ED051A207B2876EBE6B4F8DE
:102310000500A886E7E603B02AA0BDEC0A8BBDE85D
:10232000F04001F00DBD000000000000008076408C
:10233000000000000000303F257820257820257817
:102340002025782025782025780A0000C976BE9FB0
:102350001A2FBD3F0000000000005940000000009F
:102360000000503F50696E67206D6F746F72204996
:10237000443A2025640A00004D6F64656C4E756D0B
:102380006265723A202564204669726D56657273E3
:10239000696F6E3A2025780A00000000537461745A
:1023A00075733A2025780A00416C61726D3A2025D8
:1023B000782C2053687574446F776E3A2025780A1C
:1023C0000000000057726F6E6720646174612072B4
:1023D000656365697665640A00000000024908606B
:1023E0000A2000F06BBA00000000002038B5044657
:1023F00040788DF8000002208DF8010001208DF852
:10240000020003216846FFF715FE8DF80300042142
:10241000684601F02DFA6946204601F0E5F938BD1D
:102420001CB5044640788DF8000004208DF80100AA
:1024300002208DF8020006208DF803000A208DF896
:10244000040005216846FFF7F5FD8DF8050006211B
:10245000684601F00DFA6946204601F0C5F91CBD39
:102460001CB5044640788DF8000004208DF801006A
:1024700002208DF8020024208DF8030008208DF83A
:10248000040005216846FFF7D5FD8DF805000621FB
:10249000684601F0EDF96946204601F0A5F91CBD3A
:1024A0001CB5044640788DF8000004208DF801002A
:1024B00002208DF8020000208DF8030003208DF823
:1024C000040005216846FFF7B5FD8DF805000621DB
:1024D000684601F0CDF96946204601F085F91CBD3A
:1024E0001CB5044640788DF8000004208DF80100EA
:1024F00002208DF802001A208DF8030003208DF8C9
:10250000040005216846FFF795FD8DF805000621BA
:10251000684601F0ADF96946204601F065F91CBD39
:102520001CB5044640788DF8000004208DF80100A9
:1025300002208DF8020010208DF8030001208DF894
:10254000040005216846FFF775FD8DF8050006219A
:10255000684601F08DF96946204601F045F91CBD39
:102560002DE9F0410E46074600251CE0C5EBC501EC
:1025700007EBC104022084F82C000DA001F0E0FB61
:102580002046FFF733FF2046FFF7CAFF2046FFF73C
:1025900087FF2046FFF7A4FF2046FFF741FF11A069
:1025A00001F0CEFB6D1CB542E0DBBDE8F081000020
:1025B0002D2D2D2D2D2D2D2D2D2D2D2D2D2D2D492F
:1025C0006E697469616C697A6520536572766F2DE6
:1025D0002D2D2D2D2D2D2D2D2D2D2D2D2D2D2D2D2B
:1025E0000A0000002D2D2D2D2D2D2D2D2D2D2D2DC5
:1025F0002D2D2D2D2D2D2D446F6E652D2D2D2D2D39
:102600002D2D2D2D2D2D2D2D2D2D2D2D2D2D2D2DFA
:102610000A0000001CB5044640788DF80000042034
:102620008DF8010003208DF8020018208DF80300BA
:102630008DF8041005216846FFF7FCFC8DF80500B5
:102640000621684601F014F96946204601F0CCF8ED
:102650001CBD000010B504468078002831D0C007AA
:1026600003D0617817A001F06BFBA078800703D539
:10267000617820A001F064FBA078400703D5617861
:1026800028A001F05DFBA078000703D5617831A098
:1026900001F056FBA078C00603D5617837A001F0A1
:1026A0004FFBA078800603D561783FA001F048FB7E
:1026B000A078400605D56178BDE8104045A001F03E
:1026C0003FBB10BD4552524F52203A3A2049443A3E
:1026D000256420536572766F2068617320496E709F
:1026E000757420566F6C74616765204572726F72E5
:1026F0002E0A00004552524F52203A3A2049443A9D
:10270000256420536572766F2068617320416E677F
:102710006C65204C696D6974204572726F722E0A67
:10272000000000004552524F52203A3A2049443AA4
:10273000256420536572766F20686173204F76653B
:102740007248656174696E67204572726F722E0AF5
:10275000000000004552524F52203A3A2049443A74
:10276000256420536572766F206861732052616E14
:102770006765204572726F722E0A00004552524FF3
:1027800052203A3A2049443A256420536572766FC4
:102790002068617320436865616B53756D204572D5
:1027A000726F722E0A0000004552524F52203A3A80
:1027B0002049443A256420536572766F206861731E
:1027C000204F7665724C6F6164204572726F722E75
:1027D0000A0000004552524F52203A3A2049443AEA
:1027E000256420536572766F2068617320496E738B
:1027F0007472756374696F6E204572726F722E0AFF
:10280000000000002DE9F0410446876D00F066F9F4
:10281000064694F835000025022806D08020606521
:1028200084F834500120BDE8F0812068016821F06F
:10283000160101602068416921F080014161206C2E
:1028400008B9A06C20B12068016821F0080101607E
:102850002068016821F0010101600CE000F03EF900
:10286000801B052807D920206065032084F83500E7
:1028700084F83450D7E720680068C007EED194F898
:102880005C103F208840B860012084F8350084F84F
:1028900034500020C7E790F83510022903D080217A
:1028A000416501207047052180F8351000680168F6
:1028B00021F00101016000207047000070B504465E
:1028C00000F00CF90546601C02D00448007804446E
:1028D00000F004F9401BA042FAD370BD7400002040
:1028E0002DE9F84FDFF8BCA10022012503264FF0A7
:1028F0000F090AF1040BAAF1040E00BF0B6805FAD8
:1029000002F42340A34270D10F7907F00307012F8F
:1029100001D0022F16D187684FEA420806FA08FC58
:1029200027EA0C07D1F80CC00CFA08FC4CEA070C9B
:10293000C0F808C04768A7430C79C4F3001494405A
:102940003C4344600C79E443A4070AD0C4684FEACE
:10295000420C06FA0CF7BC438F6807FA0CF72743C2
:10296000C7600C7904F00304022C12D1D40800EBE8
:10297000840CDCF820405707FF0E09FA07F824EA18
:102980000804D1F8108008FA07F848EA0408CCF8DF
:10299000208004684FEA420C06FA0CF7BC430F791A
:1029A00007F0030707FA0CF7274307604C6814F495
:1029B000403F70D03C4C276847F48047276024682C
:1029C00022F0030704F480440094384C07EB040C15
:1029D000DCF8084897074FEA177809FA08F7BC436C
:1029E000334FB84202D1002724E054E0314FB842BF
:1029F00001D101271EE0304FB84201D1022719E072
:102A00002E4FB84201D1032714E02D4FB84201D117
:102A100004270FE02B4FB84201D105270AE02A4FC7
:102A2000B84201D1062705E0284FB84201D1072757
:102A300000E0082707FA08F72743CCF80878DAF807
:102A400000405746D1F804C09C435FEACC2C00D527
:102A50001C433C60DBF800405F46D1F804C09C4357
:102A60005FEA8C2C00D51C433C60DEF800407746C2
:102A7000D1F804C09C435FEA8C3C00D51C433C6009
:102A8000084F083F3C68D1F804C09C435FEACC3C47
:102A900000D51C433C60521C102AFFF42FAFBDE848
:102AA000F88F0000083C01404438024000300140EB
:102AB000000002400004024000080240000C0240F6
:102AC000001002400014024000180240001C0240A6
:102AD0000AB1816170470904FBE700000148806882
:102AE000704700007400002090F83C10012912D0BB
:102AF000012100F83C1F2421417050F83C1CCA6899
:102B000022F00C0242F00402CA6020214170002130
:102B10000170084670470220704790F83C10012968
:102B200012D0012100F83C1F2421417050F83C1CB8
:102B3000CA6822F00C0242F00802CA6020214170EB
:102B400000210170084670470220704770B50400EC
:102B500004D094F83D00002510B106E0012070BDBE
:102B600084F83C50204600F0DDFC242084F83D0031
:102B70002068C16821F40051C160204600F07EFF4A
:102B80002068016921F4904101612068416921F0C8
:102B9000220141612068416941F0080141612068DA
:102BA000C16841F40051C1602564202084F83D00D3
:102BB00084F83E00002070BD02488168027811440C
:102BC00081607047740000200B4810B5016841F423
:102BD00000710160016841F480610160016841F4A5
:102BE00080710160032000F06FF80F2000F006F8FC
:102BF00000F024F8002010BD003C024070B50D4DDF
:102C000004464FF47A712878B1FBF0F00A4909685C
:102C1000B1FBF0F000F00AFB48B9102C07D20022FB
:102C20002146501E00F030F800206C6070BD01207D
:102C300070BD000074000020800000200A4808B524
:102C4000016841F480410160006800F48040009018
:102C50000548001F016841F080510160006800F0E4
:102C60008050009008BD000044380240002809DB75
:102C700000F01F02012191404009800000F1E02096
:102C8000C0F8001170470000F0B40E4B1B680C46F2
:102C9000C3F30223C3F10705042D00D90425191D30
:102CA000072901D2002300E0DB1E012606FA05F108
:102CB000491E214099409E40761E16403143F0BC8B
:102CC00000F0C3BF0CED00E0064900F00702086801
:102CD0004FF6FF03184040EA0220034A1043086001
:102CE000704700000CED00E00000FA052DE9F04708
:102CF0000E46050065D0DFF81481D8F80000F7B261
:102D000000F00700B04207D288F80070D8F8000041
:102D100000F00700B04254D128683D4C810712D51D
:102D2000400703D5206840F4E05020602878000771
:102D300003D5206840F4604020602068A96820F036
:102D4000F000084320602878C0072DD0304968681B
:102D50000839012812D0022813D0032811D009689D
:102D6000890700292DDA216821F003010143216040
:102D7000FFF7B4FE814641F2883A0EE00968890304
:102D8000EFE709688901ECE7FFF7A8FEA0EB09016E
:102D9000514502D90320BDE8F0872068696800F03A
:102DA0000C00B0EB810FEFD1D8F80010404601F0D5
:102DB0000701B14207D90770006800F00700B04270
:102DC00001D00120E7E72878400705D52068E968A9
:102DD00020F4E050084320602878000706D52068DA
:102DE000296920F4604040EAC100206000F038F812
:102DF0002168084AC1F30311515CC84006490860C4
:102E000006480068FFF7FAFE0020C4E7003C0240D5
:102E1000083802405241000880000020780000205D
:102E20000448054900680968044AC1F38221515CDD
:102E3000C840704780000020083802406241000806
:102E40000448054900680968044AC1F34231515CED
:102E5000C8407047800000200838024062410008E6
:102E6000154810B5006810F00C02144813D041103A
:102E7000042A0FD0082A0ED10F4C241F2268236881
:102E800002F03F025B0207D52068C0F38810A0FB68
:102E9000010106E0084610BD2168C1F38811A1FBBD
:102EA00000010023FDF790FA2168C1F30141491C9C
:102EB0004900B0FBF1F010BD083802400024F400D6
:102EC0002DE9F84F04006ED02078DFF84C93C0074E
:102ED000A9F104054AD009F104000168C1F3810198
:102EE000012908D00068C0F3810002280AD1D9F86E
:102EF0000000400206D52868800337D560680028A6
:102F0000E1D033E06068B0F5803F10D0B0F5A02F7D
:102F1000286810D020F480302860286820F48020B1
:102F200028606068A8B1FFF7D9FD06460DE0286863
:102F300040F48030F4E740F480202860F7E700BFD9
:102F4000FFF7CCFD801B642873D828688003F7D571
:102F50000CE0FFF7C3FD064605E000BFFFF7BEFD2E
:102F6000801B6428F0D828688003F7D42078DFF825
:102F7000AC8280074FF0000A3ED5A748001D0168CB
:102F800011F00C0F08D00068C0F3810002280BD1AB
:102F9000D9F80000400207D42868800716D5E068F9
:102FA000012800D112E033E1E068B8B10120C8F88F
:102FB0000000FFF793FD064605E000BFFFF78EFD1A
:102FC000801B0228C0D828688007F7D528682169A7
:102FD00020F0F80040EAC10028600DE0C8F800A029
:102FE000FFF77CFD064604E0FFF778FD801B022812
:102FF0001FD828688007F7D42078000722D5864F8D
:1030000087486169703771B101210160FFF766FD82
:10301000064604E0FFF762FD801B022809D83868E5
:103020008007F7D50EE0C0F800A0FFF757FD064671
:1030300005E082E0FFF752FD801B02287DD838684A
:103040008007F7D42078400768D5DFF8CCB1002797
:103050000BF13C0BDBF80000C0000BD4DBF80010D8
:1030600041F08051CBF80010DBF80000012700F0A0
:10307000805000906B4E3068C00510D4306840F42A
:1030800080703060FFF72AFD009005E0FFF726FD15
:103090000099401A022850D83068C005F6D55E4E17
:1030A000A0686C3601280FD00528306810D020F0B9
:1030B00001003060306820F004003060A068B8B1D2
:1030C000FFF70CFD00900FE0306840F00100F4E7DE
:1030D00040F004003060F7E7FFF700FD0099411A67
:1030E00041F28830814266D830688007F4D50EE01E
:1030F000FFF7F4FC009007E0FFF7F0FC0099411A9D
:1031000041F28830814256D830688007F4D42FB11C
:10311000DBF8001021F08051CBF80010A069C8B393
:103120003D49091D0968C1F3810102294AD00228DD
:10313000504607D0C8F8600000E03CE0FFF7CEFC46
:1031400004463BE04746C8F86000FFF7C7FC064668
:1031500005E000BFFFF7C2FC801B02282BD82868BF
:103160008001F7D4D4E907010843A16A2E4A49082F
:1031700002EB0141626A41EA8211084394F82C1083
:1031800040EA0161C9F8001001203866FFF7A6FC8B
:10319000044606E03EE000BFFFF7A0FC001B02284B
:1031A00009D828688001F7D534E000BFFFF796FC06
:1031B000001B022802D90320BDE8F88F286880018F
:1031C000F4D427E00128F7D0D9F80000E26900F430
:1031D000800191421CD1226A00F03F01914217D137
:1031E00047F6C071626A0140B1EB821F10D1A26A3A
:1031F0004FF0FF3300F4403103EB5202B1EB024FCA
:1032000006D194F82C1000F07060B0EB016F01D083
:103210000120D1E70020CFE70438024000004742F8
:10322000800E4742007000400000FFFF10B5401EB6
:10323000B0F1807F01D3012010BD4FF0E024606128
:103240000F21601700F001FD0020A0610720206120
:10325000002010BD70477047F8B501680446086843
:10326000CA684B6910F00F0F4FF0000559D003F0FA
:10327000010602F49077374365D0C10705D0D10528
:1032800003D5216C41F001012164410705D5D9071F
:1032900003D0216C41F002012164810705D5D907D3
:1032A00003D0216C41F004012164010707D502F02D
:1032B0002001314303D0216C41F008012164216CCD
:1032C00000293AD0800604D5900602D5204600F0A9
:1032D00074FB20684069216CC0F38010090700D49A
:1032E00060B3204600F042FB20684069400621D5CB
:1032F0002068143050E8001F21F0400140E800121F
:10330000002AF5D1A06BA8B16C490165A06BFFF74D
:10331000C2FA002811D0A06B016D01B0BDE8F040E9
:10332000084783060FD593060DD52046BDE8F84023
:1033300000F043BB2046FFF78EFFF8BD2046FFF7A5
:103340008AFF2564F8BD266B2023012E79D1C6069D
:1033500077D5D60675D50868486800904869400654
:1033600040D5A16B086840680004000CEAD0A28D2B
:103370008242E7D9E085C869B0F5807F2DD020680A
:103380000C3050E8001F21F4807140E80012002A40
:10339000F5D12068143050E8001F21F0010140E809
:1033A0000012002AF5D12068143050E8001F21F0E7
:1033B000400140E80012002AF5D184F83E30256330
:1033C00020680C3050E8001F21F0100140E8001286
:1033D000002AF5D1A06BFFF715FAA08DE18D401AF8
:1033E00081B229E0A08DE18D401A81B2E08D0028E4
:1033F000A8D00029A6D020680C3050E8002F22F475
:10340000907240E80026002EF5D12068143050E874
:10341000002F22F0010240E80026002EF5D184F8AA
:103420003E30256320680C3050E8002F22F0100257
:1034300040E80023002BF5D12046FFF70BFFF8BD35
:10344000FFE705062BD5150629D594F83D00212860
:10345000F5D1A068B0F5805F01D12069B0B1206AD4
:10346000411C2162216800784860E08C401E000405
:10347000000CE084E3D12068C16821F08001C160C4
:103480002068C16841F04001C160D8E7206A008827
:10349000C0F308004860206A801C2062E5E740060F
:1034A000CDD55006CBD5CA68204622F04002CA606E
:1034B00084F83D3000F059F9C1E700005D3900089B
:1034C00070B5040004D094F83D00002510B106E06A
:1034D000012070BD84F83C50204600F023F82420E1
:1034E00084F83D002068C16821F40051C160204685
:1034F00000F0C4FA2068016921F49041016120685C
:10350000416921F02A0141612068C16841F40051FC
:10351000C1602564202084F83D0084F83E0000202E
:1035200070BD000010B586B0044614216846FDF752
:1035300039F822682A4C00212A480323A24224D1C8
:10354000284A1032146844F480241460126802F48B
:1035500080220592026842F008020260006801AA17
:1035600000F00800059018020090022082E80B008D
:103570000720049069461C48FFF7B2F90022114663
:103580002720FFF781FB272026E0184CA24225D1F7
:10359000144A1432146844F020041460126802F0D3
:1035A00020020592026842F004020260006801AA4B
:1035B00000F00400059040200090122082E80B00EB
:1035C0000820049069460A48FFF78AF9002211464C
:1035D0004720FFF759FB4720FFF748FB06B010BD17
:1035E0000048004030380240000C02400014014006
:1035F000000802402DE9F84F044690F83E009A4634
:1036000016460D46202853D1FDB1F6B194F83C0082
:1036100001284DD0012084F83C0000272764222097
:1036200084F83E002763FFF759FAA6858146E685B0
:10363000A0684FF48058404501D1206940B12E4622
:103640005FF0000584F83C7027E00120BDE8F88FAA
:103650000026F7E74B46002220212046CDF800A0A7
:1036600000F092FA08B10320F0E726B1A0684045C7
:103670001BD038B108E020684068C0F3080025F886
:10368000020B07E0206980B12068406800F07F00ED
:1036900006F8010BE08D401EE085E08D0028D9D1B1
:1036A000202084F83E000020D0E720684068EFE743
:1036B0000220CBE7704700002DE9F843044690F85C
:1036C0003D001F4616460D4620284CD1C5B1BEB15F
:1036D00094F83C00012846D0012084F83C004FF0CB
:1036E0000008C4F84080212084F83D00FFF7F6F977
:1036F000A6848146E684A068B0F5805F03D004E02C
:103700000120BDE8F883206928B12E465FF000054E
:1037100084F83C800EE00026FAE78021204600F085
:1037200033FAA0B9AEB116F8010B21684860E08CFD
:10373000401EE084E08C4B464FF0000200970028CA
:10374000EBD14FF04001204600F01EFA30B10320CB
:10375000D7E735F8020BC0F30800E6E7202084F82D
:103760003D000020CDE70220CBE77047FEE70000D8
:1037700070B586B014216846FCF714FF1648002483
:10378000016841F080010160016801F0800105914C
:10379000016841F008010160016801F0080105912C
:1037A000016841F00401016000680C4E00F0040063
:1037B0004FF480550590002229463046FFF788F9DE
:1037C00001200095CDE90104694630460394FFF7D6
:1037D00087F806B070BD000030380240000C02408F
:1037E000FEE7FEE7704700002DE9F041804690F8C3
:1037F0002C000E46022806D0012810D0002811D136
:10380000B07801280ED1184F3868FFF76DF9B078FD
:10381000022809D003280CD001280DD00EE0B07882
:103820000328F0D1BDE8F0813079F578801D44B2ED
:1038300004E00624FF2501E0062401252046FCF7CC
:103840006DFD06460146A2B20A233868FFF7D2FE94
:103850002346324629464046FEF7FAFB3046BDE88D
:10386000F041FCF78ABD0000000000207047000016
:103870002DE9F0410E4F80460D463868FFF74DF9AF
:10388000AE1C3046FCF74AFDFF2101704170044632
:103890002A464146801CFCF740FEB2B20A2321466C
:1038A0003868FFF709FF2046BDE8F041FCF765BD29
:1038B00000000020FFF780B930B593B03021684692
:1038C000FCF770FE14210CA8FCF76CFE1D480025C7
:1038D000016841F080510160006800F08050119053
:1038E0001948016841F4804101600068022400F435
:1038F00080401190012003901020049000940694C1
:103900000820CDE90750A820CDE9090404200B9038
:103910006846FFF7D5FA08B172B6FEE70CA90F208A
:1039200081E831004FF4A0500F904FF48050109078
:1039300005210CA8FFF7DAF9002801D072B6FEE7DE
:1039400013B030BD403802400070004002480168AA
:1039500041F470010160704788ED00E010B5806BA4
:103960000021C185C184FFF776FC10BD01680C31D0
:1039700051E8002F22F4907241E80023002BF5D18A
:103980000168143151E8002F22F0010241E80023C0
:10399000002BF5D1016B012909D101680C3151E8E7
:1039A000002F22F0100241E80023002BF5D1202146
:1039B00080F83E1000210163704708B590F83E1072
:1039C000222901D0022008BD82684FF480539A4218
:1039D00001D1016921B1816A9A421BD04AB10AE042
:1039E0000268816A5268C2F308020A80816A891CEF
:1039F00008E0026972B10268526802F07F020A7040
:103A0000816A491C8162C18D491E0904090CC18566
:103A100003D019E002685268F1E70168CA6822F031
:103A20002002CA600168CA6822F48072CA60016814
:103A30004A6922F001024A61202180F83E10016BA0
:103A4000012903D0FFF736FE002008BD00210163E5
:103A500001680C3151E8002F22F0100241E80023E8
:103A6000002BF5D101680A68D20602D50A684968B8
:103A70000091818DFFF7EEFBE6E7000070B504468C
:103A800000680169E26821F4405111430161216934
:103A9000A068E26908436169114308432168CA6864
:103AA00049F20C639A430243CA6020684169A269E3
:103AB00021F440711143416131492068884202D0AC
:103AC0003049884202D1FFF7BBF901E0FFF7A8F9BE
:103AD000E2690023192164253226B2F5004F62689D
:103AE00028D0A0FB0101930F9200FCF76DFC01466A
:103AF000B0FBF5F06FF01802504301EB800006EBCD
:103B00000010B0FBF5F000F0F002B1FBF5F002EBB5
:103B10000012B1FBF5F06FF01803584301EB800081
:103B200006EB0010B0FBF5F000F00F002168104428
:103B3000886070BDA0FB010192185B41FCF744FC5A
:103B40000146B0FBF5F00201B1FBF5F06FF0180390
:103B5000584301EB800006EBC000B0FBF5F000F02D
:103B6000F80002EB4002B1FBF5F0584301EB800096
:103B700006EBC000B0FBF5F000F00700D6E7000050
:103B800000100140001401402DE9F041984617460D
:103B90000E460446069D27E0681C25D02DB1FEF791
:103BA0009DFFA0EB0800A8421ED920680C3050E809
:103BB000001F21F4D07140E80012002AF5D12068DE
:103BC000143050E8001F21F0010140E80012002AE3
:103BD000F5D1202084F83D0084F83E00002084F8D0
:103BE0003C000320BDE8F0812068006836EA000050
:103BF00004D00020B842CFD00020F3E70120F9E73D
:103C00000148FFF729BB0000840000200148FFF7AE
:103C100023BB0000C8000020FEE703B40198410068
:103C2000009850EAC12018BF04204A0D18BF40F088
:103C3000010040F2FF72B2EB515F08BF40F002009A
:103C4000012808BF052002B070470907090E0028A7
:103C500004DB00F1E02080F80014704700F00F0052
:103C600000F1E02080F8141D704730380A2801D296
:103C700001207047002070472DED028BFEF7A4FF56
:103C8000FFF71AFEFFF774FD234822490024016064
:103C90002249C0E901140C25C460C0E904458461CF
:103CA000C461FEF753FF08B172B6FEE71A481C491B
:103CB000443801604FF4E131C0E90114C460C0E947
:103CC00004458461C461FFF7FBFB08B172B6FEE7EF
:103CD00014A000F035F81048FEF780FB02211448CC
:103CE000FEF73EFC1248012138300546FEF792FCF3
:103CF0000F4C2846FEF7B4FBE06B00F0ABF941EC4B
:103D0000180BFEF7EBFE014653EC182B09A000F050
:103D100017F8EEE700140140C800002080841E0060
:103D20000048004074657374696E672E2E2E0A0079
:103D30000400002025642C20252E32660A00000095
:103D40000FB4402010B5FCF7E9FA044603AA029923
:103D5000FCF7B2FB2046FCF7C1FB82B2642321468C
:103D60000448FFF7A9FC2046FCF707FB10BC5DF8F0
:103D700014FB00008400002010B500290AD0087848
:103D8000002807D005487844FDF744FD002801D0FD
:103D9000002010BD0248784410BD0000020500005C
:103DA000FA04000010B500290AD00878002807D0CE
:103DB00005487844FDF72EFD002801D0002010BDF5
:103DC0000248784410BD0000F2040000EA0400003C
:103DD00021F00042A2F16052B2F5801F01F00043D1
:103DE00028BFD2F17F6C0BD95FEA001C43EAC20204
:103DF00042EB507018BF704728BF20F00100704799
:103E0000B2F5801FBCBF184670474FEA410C1CF545
:103E1000001F02D2084600F093B970B500F0C6F852
:103E200000000089FFF7F6BF4FF00040A0F58000CA
:103E30007047B0FA80F310FA03F10AD0C3F11D0302
:103E400003F580634FEA41504FEA035202EBD12160
:103E500070474FF000007047DFF848C170B51CEAAA
:103E6000111E1EBF1CEA13159EEA0C0F95EA0C0FDB
:103E700000F06F8081EA030423EA4C134EEAD47EFB
:103E800021EA4C1141F4801143F48013AE44A1FBAC
:103E9000024CA0FB0365AEF17F7E361955EB0C0595
:103EA000A1FB034C4CF10003A0FB021C16EB0C061B
:103EB000654153F10003094218BF46F0010613F4AF
:103EC000007F0BD14FEA03314FEA0530340341EA5A
:103ED000155140EA16506FF003020AE04FEAC32181
:103EE0004FEAC520F40241EA555140EA56506FF0BE
:103EF000020202EB2E4201EB025585EACE710AD096
:103F00005FEA440C18BF24F0004450F1000041F176
:103F1000000120EAD47040F2FE7C624500D270BD00
:103F2000A84214BF4FF080444FF04044002E08BF19
:103F30000024BEF1806FA8BFA1F1C041BDE8704070
:103F400080F282804FF0000001F1C04101F0004199
:103F500070479EEA0C0F0CEA131518BF95EA0C0F78
:103F600006D04FF0000081EA030E0EF0004170BD54
:103F700000F01CF88900013E00F007B800F009B815
:103F80004FEA430C5FEA5C5C08D081EA030100F071
:103F90005BB84FEA410C5FEA5C5CF6D14FF0000081
:103FA000014970470000FF070000F87F0EF1020E84
:103FB0002EF0030E5EF8046B364205D4012A43EB63
:103FC000030515F5001F12D8012841EB010C1CF563
:103FD000001F0CD80ED14FEAD17C15F5001F0CEB59
:103FE0004C0C0CF1020C08BF4CEBD37C04E04FF0FE
:103FF000080C01E04FEAD37C0CEB4C0526FA05F6E1
:1040000006F00706B6F1040C06D20EEB860CBDE8EE
:1040100070404CF0010C6047DFE80CF0090B020225
:104020004FF000414FF00000A1F5002170BD19468E
:104030001046012851EB010418BFD4F5001484BFC9
:10404000002001F0004170BD0808A0F500114FEA02
:104050003101704743004FEAD30C4FEA3C0C434018
:104060001FBF40070CF1605113F0FE4F70471CF06A
:10407000006F03D100200CF0004170470CF00043AA
:1040800043EA507010B540EACC0000F00EF800BFD3
:10409000000000924FEA0001FFF7D6BF4FF0004149
:1040A0004FF00000A1F5002170470EF1020E2EF036
:1040B000030E5EF8044B244204D44FEA4102B2F1ED
:1040C0007F4F11D84FEA4003B3F17F4F0CD80ED188
:1040D0004FEAD07CB2F17F4F0CEB4C0C0CF1020C90
:1040E00008BF4CEBD17C04E04FF0080C01E04FEA34
:1040F000D17C0CEB4C0324FA03F404F00704B4F174
:10410000040C06D20EEB840CBDE810404CF0010C00
:104110006047DFE80CF0070802024FF00040A0F50E
:10412000800010BD0846420018BFD2F1807288BFDF
:1041300000F0004010BD4FF04070E1EE100A7047F3
:10414000FF2141EAD050C0057047FCF720BFFDF7C2
:1041500055B800000000000000000102030406073B
:104160000809000000000102030400000000000034
:1041700000000000303132333435363738394142AF
:1041800043444546403058003031323334353637B9
:104190003839616263646566403078000400000865
:1041A0000000000000000002000100001030313269
:1041B0003334353637383961626364656678700048
:1041C000303132333435363738394142434445464D
:1041D0005850000002400000000000A00000000055
:1041E00005400000000000C8000000000C40000076
:1041F0000000409C00000000194000000020BCBEF0
:104200000000000034400000BFC91B8E0000000405
:10421000B5400000504BCFD06607E2CF0100000050
:104220006C4100003E8251AADFEEA734010000007D
:10423000D9420000DCB5A0E23A301F97FFFFFFFF34
:10424000B4450000FD25A0C8E9A3C14FFFFFFFFF53
:10425000FF3F00000000008000000000FF3F000062
:104260000000008000000000B443000800000020AF
:1042700084000000C40100083844000884000020C5
:10428000EC060000E00100081C00000043000000F4
:10429000F8FFFFFF0C0000000E0000000F00000000
:1042A0002E0000001001000043000000F8FFFFFF97
:1042B0000040404040404040404041414141414039
:1042C00040404040404040404040404040404040EE
:1042D000400502020202020202020202020202027D
:1042E0000220202020202020202020020202020282
:1042F00002029090909090901010101010101010DA
:1043000010101010101010101010101002020202E5
:104310000202888888888888080808080808080829
:104320000808080808080808080808080202020225
:10433000400000000000000000000000000000003D
:10434000000000000000000000000000000000006D
:10435000000000000000000000000000000000005D
:10436000000000000000000000000000000000004D
:10437000000000000000000000000000000000003D
:10438000000000000000000000000000000000002D
:10439000000000000000000000000000000000001D
:1043A000000000000000000000000000000000000D
:1043B00000000000000000000000000000000000FD
:1043C00000000000000000000000000000000000ED
:1043D00000000000000000000000000000000000DD
:1043E00000000000000000000000000000000000CD
:1043F00000010000000000000000000000000000BC
:1044000000000000000000000000000000000000AC
:10441000000000000000000000000000000000009C
:10442000000000000000000001000000100000007B
:08443000000000000024F4006C
:040000050800018965
:00000001FF
